:020000040800F2
:10000000B00400209D010008F514000859100008F4
:1000100099140008A9020008DD160008000000007D
:10002000000000000000000000000000F9140008BB
:10003000AB02000800000000F7140008FB140008E1
:10004000B7010008B7010008B7010008B7010008B0
:10005000B7010008B7010008B7010008B7010008A0
:10006000B7010008B7010008B7010008B701000890
:10007000B7010008B7010008B7010008B701000880
:10008000B7010008B7010008B7010008B701000870
:10009000B7010008B7010008B7010008B701000860
:1000A000B7010008B7010008B7010008B701000850
:1000B000B7010008B7010008B7010008B701000840
:1000C000B7010008B7010008B7010008B701000830
:1000D000B7010008B7010008B7010008B701000820
:1000E000B7010008B7010008B7010008B701000810
:1000F000B7010008B7010008B7010008B701000800
:10010000B7010008B7010008B7010008B7010008EF
:10011000B7010008B7010008B7010008B7010008DF
:10012000B7010008B7010008B7010008B7010008CF
:10013000B7010008B7010008B7010008B7010008BF
:10014000B7010008B7010008B7010008B7010008AF
:10015000B7010008B7010008B7010008B70100089F
:10016000B7010008B7010008B7010008B70100088F
:10017000B7010008B7010008B7010008000000003F
:10018000B7010008B7010008DFF80CD000F07AF8DA
:10019000004800471D170008B004002006488047AB
:1001A00006480047FEE7FEE7FEE7FEE7FEE7FEE75C
:1001B000FEE7FEE7FEE7FEE7991500088901000863
:1001C0002DE9F05F0546002092469B46884606468C
:1001D000814640241BE0284641464746224600F01F
:1001E00041F853465A46C01A914110D31146184659
:1001F000224600F028F82D1A67EB01084F462246E8
:100200000120002100F01FF817EB00094E41201ECD
:10021000A4F10104DFDC484631462A464346BDE8E6
:10022000F09FD2B201E000F8012B491EFBD27047CB
:100230000022F6E710B513460A4604461946FFF7B2
:10024000F0FF204610BD202A04DB203A00FA02F11C
:10025000002070479140C2F1200320FA03F31943B4
:1002600090407047202A04DB203A21FA02F0002156
:10027000704721FA02F3D040C2F1200291400843B6
:1002800019467047064C074D06E0E06840F0010350
:1002900094E8070098471034AC42F6D3FFF778FF94
:1002A000B0170008D0170008FEE7704772B6FEE7E7
:1002B00070B5044600F0F0F80546601C02D0044812
:1002C0000078044400F0E8F8401BA042FAD370BD67
:1002D000080000202DE9F84F00224FF00108032507
:1002E0004FF00F0E0B6808FA02F42340A3426ED1C0
:1002F0004E68012E05D0022E03D0112E01D0122EF1
:1003000012D186684FEA420C05FA0CF7BE43CF685B
:1003100007FA0CF7374387604668A6430C79C4F3A5
:100320000014944034434460C668570005FA07FC43
:100330008C6826EA0C06BC403443C4604C68022C2E
:1003400001D0122C13D1D40800EB8404A346D4F8B6
:10035000209054074FEAD46A0EFA0AF629EA0609F1
:100360000E6906FA0AF646EA0906CBF82060066826
:100370000C7926EA0C0604F00304BC403443046004
:100380004C68E40065D5364C266846F48046266005
:10039000246822F0030604F480440094314C344471
:1003A000A446D4F808489607370F0EFA07F6B44368
:1003B0002D4EB04201D1002624E02C4EB04201D196
:1003C00001261FE02A4EB04202D102261AE040E088
:1003D000284EB04201D1032614E0274EB04201D18D
:1003E00004260FE0254EB04201D105260AE0244E36
:1003F000B04201D1062605E0224EB04201D10726C7
:1004000000E00826BE402643CCF808681E4E34683B
:100410004F689C43FF0300D51C4334601A4C241DD5
:1004200026684F689E43BF0300D51E432660164EC4
:10043000083634684F689C43FF0200D51C43346083
:10044000114E0C3634684F689C43BF0200D51C43E4
:100450003460521C102AFFF445AFBDE8F88F00004D
:1004600044380240003001400000024000040240D5
:1004700000080240000C024000100240001402403C
:1004800000180240001C0240003C01400AB181619A
:1004900070470904FBE700000148806870470000CE
:1004A0000800002070B5040025D094F83D00002518
:1004B00020B984F83C50204600F0B4F9242084F898
:1004C0003D002068016821F0010101602068016899
:1004D00041F4004101602068016821F4004101609D
:1004E00000F008FB4D4A6168914201D84C4900E098
:1004F0004C49884201D2012070BD4B492368B0FBB2
:10050000F1F15E6826F03F060E435E606368934239
:1005100006D94FF4967359434FF47A73B1FBF3F154
:100520002368491C1E6A26F03F0631431962616840
:10053000914210D84900401EB0FBF1F2521CC2F3A8
:100540000B02042A01D2042022E0B0FBF1F0401C8F
:10055000C0F30B001CE0A268F2B301EBC10303EB94
:100560000116431EB3FBF6F35B1C43F480431B05EB
:1005700049D092B301EBC10202EB0111401EB0FB66
:10058000F1F0401CC0F30B0040F4804040F4004008
:100590002168CA694CF6FF739A431043C861D4E9D5
:1005A000071001432068026822F0C0021143016075
:1005B000D4E9030101432068826848F2FF339A437B
:1005C00011438160D4E9050108432168CA6822F01B
:1005D000FF021043C86001E00EE016E020680168E9
:1005E00041F0010101602564202084F83D0025636D
:1005F00084F83E50002070BD01EB4106431EB3FB62
:10060000F6F35B1CB3E70120C2E701EB4101401E9A
:10061000B0FBF1F0401CC0F30B00B7E7A08601006F
:1006200080841E0000093D0040420F002DE9FF4F6D
:1006300083B09A46DDE9119793460446DDF8408081
:10064000FFF72AFF054694F83D00202870D11923B2
:10065000012271492046009500F094FD0028F5D153
:1006600094F83C00012863D0012084F83C00206805
:100670000168C90703D1016841F0010101602068E8
:10068000016821F400610160222084F83D004020CF
:1006900084F83E0000262664C4F82480A4F82A903A
:1006A000608D20855D48E062CDE9007553465A466D
:1006B0002046049900F0E8FC00287CD1208DD0B1C0
:1006C000012821D00228206824D041698069009047
:1006D000208D032869D801282BD0514902283B4698
:1006E0004FF00002009559D08846204600F04AFDA0
:1006F000002860D13CE0206841698169009101686F
:1007000041F40071016077E02068016821F48061A4
:100710000160F0E7016821F48061016020680168F0
:1007200041F400610160206841698069009063E0E4
:100730006FE02A463946204600F0A3FD98BB2068AA
:100740000069616A08704EE02068016841F4007138
:10075000016020680069616A0870606A401C60621C
:10076000218D491E2185618D491E6185216838E0F2
:100770002068016821F48061016020680069616A75
:100780000870606A401C6062208D401E2085608D6C
:10079000401E60853B46002241460095204600F001
:1007A000F1FC00B9D0E706E0FFE72A4639462046CB
:1007B00000F067FD18B1012007B0BDE8F08F206898
:1007C0000069616A0870606A401C6062218D491E80
:1007D0002185618D491E618521684A69D24352078E
:1007E0000AD409690170606A401C6062208D401E55
:1007F0002085608D401E6085208D00287FF468AFC5
:10080000202084F83D0084F83E6084F83C6000209D
:10081000D2E70220D0E70000020010000000FFFF36
:100820000400010010B586B0044614216846FFF7A5
:10083000FFFC13492068884220D11248016841F02A
:10084000020101600068694600F002000590C020C6
:1008500000901220019001200290032003900420B8
:1008600004900948FFF736FD06481030016841F44E
:1008700000110160006800F40010059006B010BD82
:1008800000540040303802400004024002488168B1
:100890000278114481607047080000200B4810B5B1
:1008A000016841F400710160016841F480610160F8
:1008B000016841F480710160032000F06FF80020AE
:1008C00000F006F800F024F8002010BD003C0240C3
:1008D00070B50D4D04464FF47A712878B1FBF0F0F5
:1008E0000A490968B1FBF0F000F004FB48B9102C8C
:1008F00007D200222146501E00F030F800206C6024
:1009000070BD012070BD0000080000201400002010
:100910000A4808B5016841F480410160006800F4AC
:10092000804000900548001F016841F0805101603F
:10093000006800F08050009008BD0000443802407C
:10094000002809DB00F01F020121914040098000CE
:1009500000F1E020C0F8001170470000F0B40E4B29
:100960001B680C46C3F30223C3F10705042D00D90D
:100970000425191D072901D2002300E0DB1E0126F2
:1009800006FA05F1491E214099409E40761E164008
:100990003143F0BC00F0A3BE0CED00E0064900F0CE
:1009A000070208684FF6FF03184040EA0220034A96
:1009B00010430860704700000CED00E00000FA05ED
:1009C0002DE9F0470E46050065D0DFF81481D8F810
:1009D0000000F7B200F00F00B04207D288F80070B4
:1009E000D8F8000000F00F00B04254D128683D4C08
:1009F000810712D5400703D5206840F4E0502060FD
:100A00002878000703D5206840F460402060206803
:100A1000A96820F0F000084320602878C0072DD096
:100A2000304968680839012812D0022813D00328F9
:100A300011D00968890700292DDA216821F0030106
:100A400001432160FFF728FD814641F2883A0EE01C
:100A500009688903EFE709688901ECE7FFF71CFDE6
:100A6000A0EB0901514502D90320BDE8F0872068B9
:100A7000696800F00C00B0EB810FEFD1D8F80010DE
:100A8000404601F00F01B14207D90770006800F03D
:100A90000F00B04201D00120E7E72878400705D5D4
:100AA0002068E96820F4E0500843206028780007B7
:100AB00006D52068296920F4604040EAC100206022
:100AC00000F038F82168084AC1F30311515CC840AE
:100AD0000649086006480068FFF7FAFE0020C4E7F0
:100AE000003C02400838024098170008140000201B
:100AF0000C0000200448054900680968044AC1F355
:100B00008221515CC8407047140000200838024020
:100B1000A81700080448054900680968044AC1F399
:100B20004231515CC8407047140000200838024030
:100B3000A8170008154810B5006810F00C021448FA
:100B400013D01449042A0FD0082A0ED10F4C241FA9
:100B50002268236802F03F025B0207D52068C0F3D9
:100B60008810A0FB010106E0084610BD2168C1F312
:100B70008811A1FB00010023FFF722FB2168C1F3CC
:100B80000141491C4900B0FBF1F010BD083802409A
:100B90000024F40040787D012DE9F84F04006ED068
:100BA0002078DFF83C93C007A9F104054AD009F189
:100BB00004000168C1F38101012908D00068C0F375
:100BC000810002280AD1D9F80000400206D5286821
:100BD000800337D560680028E1D033E06068B0F565
:100BE000803F10D0B0F5A02F286810D020F48030BE
:100BF0002860286820F4802028606068A8B1FFF78A
:100C00004BFC06460DE0286840F48030F4E740F4E1
:100C100080202860F7E700BFFFF73EFC801B6428B8
:100C200073D828688003F7D50CE0FFF735FC06463B
:100C300005E000BFFFF730FC801B6428F0D828686F
:100C40008003F7D42078DFF89C8280074FF0000AF9
:100C50003ED5A348001D016811F00C0F08D00068B4
:100C6000C0F3810002280BD1D9F80000400207D45C
:100C70002868800716D5E068012800D112E02BE132
:100C8000E068B8B10120C8F80000FFF705FC06468F
:100C900005E000BFFFF700FC801B0228C0D82868D1
:100CA0008007F7D52868216920F0F80040EAC100E4
:100CB00028600DE0C8F800A0FFF7EEFB064604E050
:100CC000FFF7EAFB801B02281FD828688007F7D4AB
:100CD0002078000722D5824E83486169703671B151
:100CE00001210160FFF7D8FB074604E0FFF7D4FBC2
:100CF000C01B022809D830688007F7D50EE0C0F87D
:100D000000A0FFF7C9FB074605E082E0FFF7C4FB40
:100D1000C01B02287DD830688007F7D420784007B0
:100D200068D5DFF8BCB100270BF13C0BDBF8000005
:100D3000C0000BD4DBF8001041F08051CBF800105C
:100D4000DBF80000012700F080500090674E30680B
:100D5000C00510D4306840F480703060FFF79CFB11
:100D6000009005E0FFF798FB0099401A022850D840
:100D70003068C005F6D55A4EA0686C3601280FD0F1
:100D80000528306810D020F001003060306820F075
:100D900004003060A068B8B1FFF77EFB00900FE060
:100DA000306840F00100F4E740F004003060F7E7FD
:100DB000FFF772FB0099411A41F28830814266D8F0
:100DC00030688007F4D50EE0FFF766FB009007E07F
:100DD000FFF762FB0099411A41F28830814256D8F0
:100DE00030688007F4D42FB1DBF8001021F0805177
:100DF000CBF80010A069C8B33949091D0968C1F3CF
:100E0000810102294AD00228504607D0C8F8600064
:100E100000E03CE0FFF740FB04463BE04746C8F8F3
:100E20006000FFF739FB064605E000BFFFF734FB23
:100E3000801B02282BD828688001F7D4D4E9070149
:100E40000843A16A2A4A490802EB0141626A41EA61
:100E50008211084394F82C1040EA0161C9F800108F
:100E600001203866FFF718FB044606E036E000BFB5
:100E7000FFF712FB001B022809D828688001F7D56C
:100E80002CE000BFFFF708FB001B022802D903205B
:100E9000BDE8F88F28688001F4D41FE00128F7D05E
:100EA000D9F80000E26900F48001914214D1226A6D
:100EB00000F03F0191420FD147F6C071626A0140D4
:100EC000914209D1A26A00F44031914204D1E16A11
:100ED00000F07060884201D00120D9E70020D7E7F8
:100EE0000438024000004742800E47420070004034
:100EF0000000FFFF10B5401EB0F1807F01D301203C
:100F000010BD4FF0E02460610F21601700F0E7FB97
:100F10000020A06107202061002010BD70B50400F2
:100F200004D094F83900002510B106E0012070BD0E
:100F300084F83850204600F023F8242084F8390043
:100F40002068C16821F40051C160204600F032FBE6
:100F50002068016921F4904101612068416921F014
:100F60002A0141612068C16841F40051C160E56314
:100F7000202084F8390084F83A00002070BD000079
:100F800010B586B0044614216846FFF751F9184998
:100F90002068884229D117480021026842F01002D7
:100FA0000260006800F010000590124814380268D2
:100FB00042F001020260006800F0010005904FF469
:100FC000C06000900220CDE90101032003900720BA
:100FD000049069460848FFF77DF900220321252087
:100FE000FFF7BCFC2520FFF7ABFC06B010BD0000EE
:100FF0000010014044380240000002403EB5FF208E
:10100000012400258DF808008DF8045001AB22461C
:1010100061210F48009400F08DF902AB0322612199
:101020000B48009400F086F99DF80400094920B1AE
:10103000012808D0022808D003E09DF80800FF2806
:1010400000D00D703EBD0C703EBD022008703EBD4C
:101050001800002000000020FEE701684A69D24322
:1010600052050FD46FF480624A61002140F8301FAE
:10107000202242738173026942F00402026101730B
:1010800001207047002070472DE9F84F04460068A2
:1010900089460B9D01689846174641F480610160BE
:1010A0002068016841F48071016000954FF0011BD8
:1010B0000022594620460A9B00F064F84FF4007A5B
:1010C00040B120680068C00501D5C4F840A00320E5
:1010D000BDE8F88F216809F0FE0008612B46284919
:1010E00020460A9A00F082F8F0BB206841698069C6
:1010F00000902A4620460A9900F0F6F840B1206C8C
:1011000004283AD12068016841F40071016034E09C
:10111000FEB2B8F1010F09D02168380A08612A46E9
:1011200020460A9900F0E0F80028E8D1206806611E
:101130002A4620460A9900F0D7F80028DFD1206817
:10114000016841F4807101600095002259462046F3
:101150000A9B00F017F80028B3D1216809F0FF00BE
:1011600040F00100086100E007E02B4604492046FA
:101170000A9A00F03BF80028AAD00120A8E7000056
:10118000020001002DE9F0471E4690460D46044638
:10119000C1F30747DDF8209008E0701C06D0FFF788
:1011A0007BF9A0EB0900B0420FD876B12068012F7F
:1011B00018D0806925EA00000004000C14D000213A
:1011C0004145EAD00020BDE8F087002044F8300F08
:1011D00020216173A073216941F0200121612073F6
:1011E0000120F0E74069E5E70121E9E72DE9F04753
:1011F0009A4691460E46044600254FF02008C1F35A
:10120000074725E020684069C043400514D42068A2
:10121000016841F40071016021686FF480604861E9
:10122000256384F83D8084F83E50206C40F0040033
:10123000206484F83C501FE0B9F1FF3F08D0FFF76D
:101240002BF9A0EB0A0149450CD8B9F1000F09D0E0
:101250002068012F13D0806926EA00000004000CEA
:101260000BD0CFE744F8305F84F80D80A573206978
:1012700040F02000206125730120BDE8F08740691F
:10128000EAE72DE9F041002590460E460446202766
:1012900017E04069C043C0060CD454F8301B6FF00F
:1012A0001000486144F810596777A577206A2062DA
:1012B000257717E0FFF7F0F8A0EB0800B04208D858
:1012C0003EB120684169C9434906E2D40020BDE827
:1012D000F08144F8305F6773A573206940F0200007
:1012E000206125730120F2E770B516460D460446CD
:1012F0000DE02046FFF7B1FE08B1012070BD681C6B
:1013000005D0FFF7C9F8801BA84207D835B120687F
:101310004069C0430006ECD4002070BD002044F8B2
:10132000300F20216173A073216941F020012161F8
:101330002073E2E72DE9FE43094E0A9D1C4617463D
:101340008846814630680094CDE9015001233A4631
:1013500041464846FFF76AF90028F3D1BDE8FE830D
:10136000040000202DE9F04786B014216846FEF7FE
:101370005FFF27480024016841F010010160016807
:1013800001F010010591016841F0800101600168E0
:1013900001F080010591016841F0080101600068D9
:1013A000DFF8708000F008000590002250214046D0
:1013B000FFF76CF8DFF860904FF4005600223146DA
:1013C0004846FFF763F8DFF854A07710002239464B
:1013D0005046FFF75BF8502000900125CDE90154FD
:1013E000694640460394FEF775FF0096CDE9015427
:1013F000694648460394FEF76DFF0097CDE9015416
:10140000694650460394FEF765FF06B0BDE8F087D5
:101410003038024000100240001C0240000C024024
:101420000D4810B50B4901600C49416000214FF493
:1014300080428160C0E9031241618161C161016242
:10144000FFF730F8002803D0BDE81040FEF72EBFAC
:1014500010BD00000054004018000020A0860100CC
:101460000C4810B50A4901604FF4E1314160002198
:1014700081600C22C160C0E904128161C161FFF783
:101480004DFD002803D0BDE81040FEF70FBF10BD92
:10149000001001406C000020FEE7000070B504461B
:1014A00007281BD80E4D4FF480510E4815F8242004
:1014B000FEF7ECFF05EB84044FF4005162780A4814
:1014C000FEF7E4FFA27810210848FEF7DFFFE2787C
:1014D000BDE8704002210648FEF7D8BF70BD00008D
:1014E00078170008000C0240001C02400010024067
:1014F00000180240704770477047FFF7C7B90000F7
:1015000030B593B030216846FEF792FE14210CA846
:10151000FEF78EFE1E480025016841F080510160F3
:10152000006800F0805011901A48016841F4804131
:1015300001600068022400F48040119001200090B6
:10154000000401908001CDE90640082008904FF486
:10155000A870CDE9090407200B906846FFF71CFB33
:1015600008B172B6FEE70CA90F2081E831004FF4F4
:10157000A0500F904FF48050109005210CA8FFF759
:101580001FFA002801D072B6FEE713B030BD00008C
:1015900040380240007000400548016841F4700185
:1015A000016003494FF00060803908607047000017
:1015B00088ED00E02DE9F041044600680169E26829
:1015C00021F44051114301612169A068E269084397
:1015D0006169114308432168CA6849F20C639A4360
:1015E0000243CA6020684169A26921F44071114335
:1015F0004161E069192764253226B0F5004F354A6C
:10160000354920684FF0000806D0884201D090424A
:1016100036D1FFF77FFA35E0884201D0904202D1FF
:10162000FFF778FA01E0FFF765FA61684A18A0FB56
:10163000070148EB0803FEF7C3FD0146B0FBF5F0D8
:101640000201B1FBF5F06FF01803584301EB800085
:1016500006EBC000B0FBF5F000F0F80002EB400232
:10166000B1FBF5F0584301EB800006EBC000B0FB86
:10167000F5F000F00700216810448860BDE8F081B3
:10168000FFF738FA61688B0F8A00A0FB0701FEF7AD
:1016900097FD0146B0FBF5F06FF01802504301EBE7
:1016A000800006EB0010B0FBF5F000F0F002B1FB9B
:1016B000F5F002EB0012B1FBF5F06FF018035843A0
:1016C00001EB800006EB0010B0FBF5F000F00F001E
:1016D000D1E700000014014000100140FEE70907B7
:1016E000090E002804DB00F1E02080F800147047A8
:1016F00000F00F0000F1E02080F8141D704702E0B8
:1017000008C8121F08C1002AFAD17047704700208C
:1017100001E001C1121F002AFBD17047FFF7BEF89C
:10172000FFF7EEFEFFF71EFEFFF77AFEFFF798FECB
:10173000104D00BFFFF762FC28780028FAD0287807
:10174000012601280BD00228F4D10724E0B2FFF7CC
:10175000A5FE3046FEF7ACFD641EF7D5EAE700248F
:10176000E0B2FFF79BFE3046FEF7A2FD641C082C9A
:10177000F6DBDFE7000000200100000001010000AF
:101780000001000000010100000001000000010153
:101790000000000101000001000000000000000046
:1017A0000102030406070809000000000102030407
:1017B000D01700080000002018000000FE160008E6
:1017C000E817000818000020980400000E17000811
:1017D00000000000FFFF00000100000010000000FA
:0817E000000000000024F400E9
:040000050800018965
:00000001FF
